:100000000C9434000C9451000C9451000C94510049
:100010000C9451000C9451000C9451000C9451001C
:100020000C9451000C9451000C9451000C9451000C
:100030000C9451000C9451000C9451000C945100FC
:100040000C9453000C9451000C9451000C945100EA
:100050000C9451000C9451000C9451000C945100DC
:100060000C9451000C94510011241FBECFEFD8E026
:10007000DEBFCDBF11E0A0E0B1E0EEEAF5E002C0E6
:1000800005900D92A630B107D9F721E0A6E0B1E0C6
:1000900001C01D92AC31B207E1F70E946E010C94D1
:1000A000D5020C9400001F920F920FB60F921124EC
:1000B0008F939F9380910E0190910F0101968D3740
:1000C000910528F490930F0180930E0112C01092B5
:1000D0000F0110920E018091840090918500909301
:1000E00019018093180181E090E0909311018093B1
:1000F00010019F918F910F900FBE0F901F90189538
:1001000020E335E7DC010E94B40224EA31E040E05C
:1001100050E00E949502CA01B90108950F931F9300
:10012000AC012FEF3FEFDB010E94B4028A01550FB3
:10013000220B330BA9019801260F371F481F591FA7
:10014000A8EEB3E00E94BB0224EA31E040E050E0B8
:100150000E947302CA01B9011F910F91089581E0B5
:1001600090E0089581E090E0089581E090E00895A6
:100170001092C50081E08093C40082E08093C000AB
:10018000E1ECF0E088E180838081806880830895DD
:100190009091C00095FFFCCF8093C6000895CF9347
:1001A000DF93EC018991882319F00E94C800FACFEF
:1001B000DF91CF9108958DE00E94C8008AE00C94F1
:1001C000C800CF93DF93282F3AE0632F0E94530299
:1001D000D92F0E945302C92F822F64E60E94530236
:1001E000882369F0805D0E94C80080E38C0F0E9424
:1001F000C80080E38D0FDF91CF910C94C800CC2311
:10020000C1F3F3CFFF920F931F93CF93DF939C0122
:10021000EAE0F0E0BF010E945F02082FCB01BF01BE
:100220000E945F02C82F482FC90164E670E00E9457
:100230005F02CB01BF010E945F02D82FC90168EEA7
:1002400073E00E945F02CB01BF010E945F02182F82
:10025000C90160E177E20E945F026623C9F080E392
:10026000860F0E94C80080E3810F0E94C80080E3CF
:100270008D0F0E94C80080E38C0F0E94C80080E3AD
:10028000800FDF91CF911F910F91FF900C94C800C8
:100290001111E9CFD111EBCF4111EDCFF0CFCF93B9
:1002A000DF93EC0197FF06C08DE20E94C800D19554
:1002B000C195D109CE01DF91CF910C9402018091BB
:1002C000C00087FFFCCF8091C60008958091C000D8
:1002D00087FF03C08091C600F9CF0895CF93DF93C5
:1002E00000D0CDB7DEB71A82198284B18A6084B992
:1002F0008AE08AB914BC15BC85B5856085BD80913E
:100300006E00816080936E001092B0001092B10078
:100310008091B00081608093B0008091B000806ACD
:100320008093B0008091B10081608093B1000E9401
:10033000B8000E946601789484EAC82EDD24D39424
:10034000E12CF12CAA24A394B12C8091100190915E
:100350001101892B09F45BC000911801109119015A
:1003600080911A0190911B010817190709F443C0E5
:10037000D8018017910708F01197A81BB90B20E34B
:1003800035E70E94B402A70196010E9495022093CE
:100390001401309315014093160150931701A09159
:1003A0000801B09109012FEF3FEF0E94B40228012C
:1003B000012E000C660877089B01AC01240D351D49
:1003C000461D571DA8EEB3E00E94BB02A70196018F
:1003D0000E94730220930A0130930B0140930C0199
:1003E00050930D0110931B0100931A01B092130159
:1003F000A092120108C010921401109215011092DF
:1004000016011092170110921101109210014E9BCB
:100410000AC080910601909107010196909307010F
:100420008093060104C010920701109206014090CB
:100430001401509015016090160170901701809082
:100440000A0190900B0100910C0110910D0182E0C6
:100450000E94C80082E091E00E94CF00842D0E949B
:10046000C800852D0E94C800862D0E94C800872DD7
:100470000E94C800882D0E94C800892D0E94C800D3
:10048000802F0E94C800812F0E94C80083E00E9434
:10049000C8002FEF81EE94E0215080409040E1F7BA
:1004A00000C0000052CF991B79E004C0991F961735
:1004B00008F0961B881F7A95C9F780950895AA1BA6
:1004C000BB1B51E107C0AA1FBB1FA617B70710F03F
:1004D000A61BB70B881F991F5A95A9F78095909571
:1004E000BC01CD010895A1E21A2EAA1BBB1BFD0180
:1004F0000DC0AA1FBB1FEE1FFF1FA217B307E40703
:10050000F50720F0A21BB30BE40BF50B661F771F5A
:10051000881F991F1A9469F760957095809590953A
:100520009B01AC01BD01CF010895052E97FB1EF480
:1005300000940E94AC0257FD07D00E94730207FC92
:1005400003D04EF40C94AC02509540953095219513
:100550003F4F4F4F5F4F08959095809570956195EF
:100560007F4F8F4F9F4F08950E94C602B7FF089597
:10057000821B930B08950E94C602A59F900DB49F05
:10058000900DA49F800D911D11240895A29FB0018C
:10059000B39FC001A39F700D811D1124911DB29FB7
:0E05A000700D811D1124911D0895F894FFCF58
:0605AE00060046310000CA
:00000001FF
