:100000000C9434000C9451000C9451000C94510049
:100010000C9451000C9451000C9451000C9451001C
:100020000C9451000C9451000C9451000C9451000C
:100030000C9451000C9451000C9451000C945100FC
:100040000C94CC020C9451000C9451000C9451006F
:100050000C9451000C9451000C9451000C945100DC
:100060000C9451000C94510011241FBECFEFD8E026
:10007000DEBFCDBF11E0A0E0B1E0ECE9FDE002C0E1
:1000800005900D92A431B107D9F721E0A4E1B1E0C8
:1000900001C01D92A533B207E1F70E94FD040C9444
:1000A000CC060C9400001092B90088E18093B8004F
:1000B000089594EA9093BC009091BC0097FFFCCF08
:1000C0009091B900987F983021F0903111F081E043
:1000D00008958093BB0084E88093BC008091BC00AD
:1000E00087FFFCCF8091B900887F883111F0803480
:1000F00071F780E0089524EA34E844E92093BC00D5
:100100009091BC0097FFFCCF9091B900987F9830F8
:1001100011F0903199F78093BB003093BC0090911F
:10012000BC0097FFFCCF9091B900987F903211F0FE
:10013000983539F44093BC009091BC0094FDFCCFFD
:10014000DDCF08950C94590084E98093BC00809120
:10015000BC0084FDFCCF08958093BB0084E88093AD
:10016000BC008091BC0087FFFCCF9091B900987FC4
:1001700081E0983209F480E0089584EC8093BC001B
:100180008091BC0087FFFCCF8091BB00089584E87C
:100190008093BC008091BC0087FFFCCF8091BB00A6
:1001A000089562E087E00E94CB0400C062E087E02F
:1001B0000C94CE04CF93C82F80911401662311F0C4
:1001C000816001C08E7F80931401809114018D7F26
:1001D000809314016091140187E00E944D04809186
:1001E00014018F7780931401809114018F7B809389
:1001F0001401809114018F7D80931401809114016A
:100200008F7E80931401C7FF05C080911401806820
:1002100080931401C6FF05C080911401806480930F
:100220001401C5FF05C08091140180628093140100
:10023000C4FF05C080911401806180931401609116
:10024000140187E00E944D040E94D10080911401A6
:100250008F7780931401809114018F7B8093140118
:10026000809114018F7D80931401809114018F7E01
:1002700080931401C3FF05C08091140180688093AE
:100280001401C2FF05C080911401806480931401A1
:10029000C1FF05C080911401806280931401C0FFEA
:1002A00005C0809114018061809314016091140154
:1002B00087E00E944D040E94D1008091140180616A
:1002C00080931401809114018062809314018091C5
:1002D00014018064809314018091140180688093DC
:1002E00014016091140187E0CF910C944D04CF93D9
:1002F000809114018E7F809314018091140182609B
:10030000809314016091140187E00E944D0462E023
:1003100087E00E94CB0400C064E087E00E94E6040E
:10032000811102C0C0E101C0C0E065E087E00E9429
:10033000E604811101C0C06266E087E00E94E60425
:10034000811101C0C06467E087E00E94E60481116A
:1003500001C0C06862E087E00E94CE0400C062E095
:1003600087E00E94CB0400C064E087E00E94E604BE
:10037000811101C0C16065E087E00E94E60481113F
:1003800001C0C26066E087E00E94E604811101C0FE
:10039000C46067E087E00E94E604811101C0C86084
:1003A00062E087E00E94CE048C2FCF9108950E94D6
:1003B000770187FDFCCF88E090E00197F1F70C947E
:1003C0007701CF93C82F0E94D70160E08C2FCF9187
:1003D0000C94DA00CF93C82F0E94D70161E08C2FD4
:1003E000CF910C94DA00611102C0805801C0805492
:1003F0000C94E1010E94D70190E0089581E00C94F3
:10040000E101882321F080911401877F03C080914E
:1004100014018860809314016091140187E00C94AA
:100420004D0482E00C94E101CF93C82F0E94D701C4
:10043000CA3049F4803410F080E001C080E4805874
:10044000CF910C94E101803119F460E080EC04C09C
:10045000803521F460E080E80E94DA000E94D70134
:1004600061E08C2FCF910C94DA00CF93C0E48C2FF5
:100470000E94E10180E00E941402CF5FC038B9F70A
:10048000CF9108950F931F93CF93DF93883090F40B
:100490008B01880F880F880F805C0E94E101E801C2
:1004A000085F1F4F89910E941402C017D107D1F72E
:1004B00080E001C081E0DF91CF911F910F910895FD
:1004C000CF93DF93EC018991882319F00E941402E5
:1004D000FACFDF91CF910895CF93DF93FC01849100
:1004E000EF012196882321F00E941402FE01F7CF2C
:1004F000DF91CF9108951F93CF93DF93182F0E9420
:100500001D04109214016091140187E00E944D04B3
:1005100080E09AEF0197F1F7809114018062809357
:100520001401809114018061809314016091140181
:1005300087E00E944D040E94D10080E09EE4019774
:10054000F1F70E94D100C0E0D1E0CE010197F1F7B0
:100550000E94D100CE010197F1F7809114018F7EA6
:10056000809314016091140187E00E944D040E9461
:10057000D1002197F1F788E20E94E10188E00E9412
:10058000E1010E94FE0186E00E94E101812FDF91DE
:10059000CF911F910C94E1011F920F920FB60F9211
:1005A00011248F939F9380911D0190911E010196BC
:1005B0008D37910528F490931E0180931D0112C080
:1005C00010921E0110921D0180918400909185006F
:1005D00090932A018093290181E090E09093220179
:1005E000809321019F918F910F900FBE0F901F90CC
:1005F000189520E335E7DC010E94AB0624EA31E0E0
:1006000040E050E00E948C06CA01B90108950F93A2
:100610001F93AC012FEF3FEFDB010E94AB068A0175
:10062000550F220B330BA9019801260F371F481FC6
:10063000591FA8EEB3E00E94B20624EA31E040E080
:1006400050E00E946A06CA01B9011F910F910895F6
:1006500020910001309101018091190190911A01BE
:10066000A0911B01B0911C01A90160E070E084170A
:100670009507A607B70738F428513C4F309301017E
:1006800020930001089588519C4F9093010180931D
:1006900000010895109201011092000108958091C7
:1006A000190190911A01909301018093000108951E
:1006B00081E090E09093200180931F01299A089592
:1006C0001092200110921F0185B115B80895109263
:1006D000C50081E08093C40082E08093C000E1EC1B
:1006E000F0E088E180838081806880830895909124
:1006F000C00095FFFCCF8093C6000895CF93DF9391
:10070000EC018991882319F00E947703FACFDF91D9
:10071000CF9108958DE00E9477038AE00C947703CF
:10072000CF93DF93282F3AE0632F0E944A06D92FF8
:100730000E944A06C92F822F64E60E944A06882337
:1007400069F0805D0E94770380E38C0F0E9477033D
:1007500080E38D0FDF91CF910C947703CC23C1F30D
:10076000F3CFFF920F931F93CF93DF939C01EAE0A7
:10077000F0E0BF010E945606082FCB01BF010E9486
:100780005606C82F482FC90164E670E00E9456063D
:10079000CB01BF010E945606D82FC90168EE73E055
:1007A0000E945606CB01BF010E945606182FC901B0
:1007B00060E177E20E9456066623C9F080E3860F67
:1007C0000E94770380E3810F0E94770380E38D0FFF
:1007D0000E94770380E38C0F0E94770380E3800FF1
:1007E000DF91CF911F910F91FF900C94770311111E
:1007F000E9CFD111EBCF4111EDCFF0CFCF93DF9304
:10080000EC0197FF06C08DE20E947703D195C19558
:10081000D109CE01DF91CF910C94B1038091C0003A
:1008200087FFFCCF8091C60008958091C00087FFAC
:1008300003C08091C600F9CF08950E94530085E35C
:100840008A95F1F7000080E090E0FC01E35DFE4F47
:100850001082019688309105C1F70895883030F4F0
:10086000E82FF0E0E35DFE4F808108958FEF08955B
:10087000883088F4683078F4E82FF0E0E35DFE4FCC
:100880008081082E000C990B02C0959587956A957A
:10089000E2F7817008958FEF0895CF93883088F440
:1008A000C62FE82FF0E0E35DFE4F6083805E880F87
:1008B0000E9459008C2F0E94AC000E94A40080E08E
:1008C00001C08FEFCF910895CF938830D0F5A62F38
:1008D000B0E0A41BB109AF3F9FEFB90794F161509D
:1008E000673078F5442369F1942FE82FF0E0E35D59
:1008F000FE4FC081BD016F5F7F4F022E000C330B96
:10090000062E01C0220F0A94EAF741E050E002C02F
:10091000440F551F9A95E2F74150510901C0440F09
:100920006A95EAF72C274223C427C083805E880F8C
:100930000E9459008C2F0E94AC000E94A40080E00D
:1009400001C08FEFCF910895CF93DF938830F8F4F3
:100950006830E8F4E82FF0E0E35DFE4F9081C1E0FD
:10096000D0E001C0CC0F6A95EAF7442311F0C92BFF
:1009700002C0C095C923C083805E880F0E945900C1
:100980008C2F0E94AC000E94A40080E001C08FEF79
:10099000DF91CF91089541E00C94A40440E00C94C1
:1009A000A404CF93883070F490E08096880F991F4C
:1009B00081600E9459000E94C700C82FC0950E9404
:1009C000A40001C0CFEF8C2FCF910895CF93883032
:1009D00010F08FEF10C06830E0F7C62F0E94D104EE
:1009E0008F3FB9F3082E000C990B02C0959587959F
:1009F000CA95E2F78170CF910895CF93DF93CDB779
:100A0000DEB76B970FB6F894DEBF0FBECDBF84B1D3
:100A10008A6084B98AE08AB914BC15BC85B5856042
:100A200085BD80916E00816080936E001092B00051
:100A30001092B1008091B00081608093B0008091ED
:100A4000B000806A8093B0008091B1008160809393
:100A5000B1001092800087E08093810010928500A1
:100A6000109284000E9467030E94150478940E94EB
:100A700058038DE00E947B020E94110280E00E94D8
:100A8000010260E081E00E94F3018BE091E00E94AE
:100A900060021E012AE1220E311C84EAC82EDD24E8
:100AA000D394E12CF12C80911501909116014E9B6D
:100AB0000DC001969093160180931501853691051E
:100AC00098F010920101109200010EC08536910538
:100AD00018F00E944F0304C00B9710F00E942803E7
:100AE000109216011092150180912101909122011E
:100AF000892B09F4C5C08DB79EB79B8F8A8F109242
:100B0000220110922101A0902901B0902A01809128
:100B10002B0190912C01A816B90609F457C0D501F4
:100B20008A159B0508F01197A81BB90B20E335E740
:100B30000E94AB06A70196010E948C062093250116
:100B4000309326014093270150932801A09117016B
:100B5000B09118012FEF3FEF0E94AB0685010B2CDF
:100B6000000C220B330BA9019801260F371F481FD9
:100B7000591FA8EEB3E00E94B206A70196010E9499
:100B80006A062093190130931A0140931B01509378
:100B90001C01B0922C01A0922B0180910001909138
:100BA0000101009751F0A0E0B0E0281739074A078B
:100BB0005B0718F00E94600302C00E945803E1E046
:100BC000F0E0F0932401E093230108C01092250186
:100BD0001092260110922701109228010091250100
:100BE0001091260120912701309128014090190190
:100BF00050901A0160901B0170901C018090290197
:100C000090902A01A12CB12C40910001509101013A
:100C100060E070E080911F0190912001092E000C8E
:100C2000AA0BBB0BF2E0F983E6E4F1E3FB83EA8372
:100C3000F4E4FC830D831E832F83388749865A860C
:100C40006B867C868D869E86AF86B88A498B5A8B4A
:100C50006B8B7C8B8D8B9E8BAF8BB88F23E0298F1A
:100C6000CE0101965C01F50181915F010E9477033D
:100C70002A143B04C1F70FB6F894DEBF0FBECDBFF8
:100C80009FEFE1EEF4E09150E040F040E1F700C06A
:100C9000000009CF991B79E004C0991F961708F04E
:100CA000961B881F7A95C9F780950895AA1BBB1BD0
:100CB00051E107C0AA1FBB1FA617B70710F0A61B5C
:100CC000B70B881F991F5A95A9F780959095BC017D
:100CD000CD010895A1E21A2EAA1BBB1BFD010DC078
:100CE000AA1FBB1FEE1FFF1FA217B307E407F507DC
:100CF00020F0A21BB30BE40BF50B661F771F881FB8
:100D0000991F1A9469F760957095809590959B014D
:100D1000AC01BD01CF010895052E97FB1EF4009490
:100D20000E94A30657FD07D00E946A0607FC03D065
:100D30004EF40C94A30650954095309521953F4F65
:100D40004F4F5F4F089590958095709561957F4FB7
:100D50008F4F9F4F08950E94BD06B7FF0895821BD5
:100D6000930B08950E94BD06A59F900DB49F900D12
:100D7000A49F800D911D11240895A29FB001B39FDF
:100D8000C001A39F700D811D1124911DB29F700D94
:0C0D9000811D1124911D0895F894FFCFDF
:100D9C00E803030244463101000600537461727487
:040DAC00696E670005
:00000001FF
